{
  "_format": "hh3-artifact-1",
  "contractName": "SchemaRegistry",
  "sourceName": "contracts/eas/SchemaRegistry.sol",
  "abi": [
    {
      "inputs": [],
      "stateMutability": "nonpayable",
      "type": "constructor"
    },
    {
      "inputs": [],
      "name": "AlreadyExists",
      "type": "error"
    },
    {
      "anonymous": false,
      "inputs": [
        {
          "indexed": true,
          "internalType": "bytes32",
          "name": "uid",
          "type": "bytes32"
        },
        {
          "indexed": true,
          "internalType": "address",
          "name": "registerer",
          "type": "address"
        },
        {
          "components": [
            {
              "internalType": "bytes32",
              "name": "uid",
              "type": "bytes32"
            },
            {
              "internalType": "contract ISchemaResolver",
              "name": "resolver",
              "type": "address"
            },
            {
              "internalType": "bool",
              "name": "revocable",
              "type": "bool"
            },
            {
              "internalType": "string",
              "name": "schema",
              "type": "string"
            }
          ],
          "indexed": false,
          "internalType": "struct SchemaRecord",
          "name": "schema",
          "type": "tuple"
        }
      ],
      "name": "Registered",
      "type": "event"
    },
    {
      "inputs": [
        {
          "internalType": "bytes32",
          "name": "uid",
          "type": "bytes32"
        }
      ],
      "name": "getSchema",
      "outputs": [
        {
          "components": [
            {
              "internalType": "bytes32",
              "name": "uid",
              "type": "bytes32"
            },
            {
              "internalType": "contract ISchemaResolver",
              "name": "resolver",
              "type": "address"
            },
            {
              "internalType": "bool",
              "name": "revocable",
              "type": "bool"
            },
            {
              "internalType": "string",
              "name": "schema",
              "type": "string"
            }
          ],
          "internalType": "struct SchemaRecord",
          "name": "",
          "type": "tuple"
        }
      ],
      "stateMutability": "view",
      "type": "function"
    },
    {
      "inputs": [
        {
          "internalType": "string",
          "name": "schema",
          "type": "string"
        },
        {
          "internalType": "contract ISchemaResolver",
          "name": "resolver",
          "type": "address"
        },
        {
          "internalType": "bool",
          "name": "revocable",
          "type": "bool"
        }
      ],
      "name": "register",
      "outputs": [
        {
          "internalType": "bytes32",
          "name": "",
          "type": "bytes32"
        }
      ],
      "stateMutability": "nonpayable",
      "type": "function"
    },
    {
      "inputs": [],
      "name": "version",
      "outputs": [
        {
          "internalType": "string",
          "name": "",
          "type": "string"
        }
      ],
      "stateMutability": "view",
      "type": "function"
    }
  ],
  "bytecode": "0x60e0604052348015600e575f5ffd5b506001608052600360a0525f60c05260805160a05160c0516109266100445f395f60fb01525f60d201525f60a901526109265ff3fe608060405234801561000f575f5ffd5b506004361061003f575f3560e01c806354fd4d501461004357806360d7a27814610061578063a2ea7c6e14610082575b5f5ffd5b61004b6100a2565b60405161005891906105ea565b60405180910390f35b61007461006f366004610617565b610145565b604051908152602001610058565b6100956100903660046106b0565b6102a4565b60405161005891906106c7565b60606100cd7f00000000000000000000000000000000000000000000000000000000000000006103aa565b6100f67f00000000000000000000000000000000000000000000000000000000000000006103aa565b61011f7f00000000000000000000000000000000000000000000000000000000000000006103aa565b60405160200161013193929190610728565b604051602081830303815290604052905090565b5f5f60405180608001604052805f5f1b8152602001856001600160a01b03168152602001841515815260200187878080601f0160208091040260200160405190810160405280939291908181526020018383808284375f920182905250939094525092935091506101b790508261043a565b5f81815260208190526040902054909150156101e65760405163119b4fd360e11b815260040160405180910390fd5b6101ef81610479565b8082525f81815260208181526040918290208451815590840151600182018054938601511515600160a01b026001600160a81b03199094166001600160a01b0390921691909117929092179091556060830151839190600282019061025490826107ff565b50905050336001600160a01b0316817fd0b86852e21f9e5fa4bc3b0cff9757ffe243d50c4b43968a42202153d651ea5e8460405161029291906106c7565b60405180910390a39695505050505050565b604080516080810182525f80825260208201819052918101919091526060808201525f828152602081815260409182902082516080810184528154815260018201546001600160a01b03811693820193909352600160a01b90920460ff161515928201929092526002820180549192916060840191906103239061077b565b80601f016020809104026020016040519081016040528092919081815260200182805461034f9061077b565b801561039a5780601f106103715761010080835404028352916020019161039a565b820191905f5260205f20905b81548152906001019060200180831161037d57829003601f168201915b5050505050815250509050919050565b60605f6103b6836104c1565b60010190505f8167ffffffffffffffff8111156103d5576103d5610767565b6040519080825280601f01601f1916602001820160405280156103ff576020820181803683370190505b5090508181016020015b5f19016f181899199a1a9b1b9c1cb0b131b232b360811b600a86061a8153600a850494508461040957509392505050565b5f81606001518260200151836040015160405160200161045c939291906108ba565b604051602081830303815290604052805190602001209050919050565b6104be8160405160240161048f91815260200190565b60408051601f198184030181529190526020810180516001600160e01b03166327b7cf8560e01b179052610599565b50565b5f8072184f03e93ff9f4daa797ed6e38ed64bf6a1f0160401b83106104ff5772184f03e93ff9f4daa797ed6e38ed64bf6a1f0160401b830492506040015b6d04ee2d6d415b85acef8100000000831061052b576d04ee2d6d415b85acef8100000000830492506020015b662386f26fc10000831061054957662386f26fc10000830492506010015b6305f5e1008310610561576305f5e100830492506008015b612710831061057557612710830492506004015b60648310610587576064830492506002015b600a8310610593576001015b92915050565b6104be815f6a636f6e736f6c652e6c6f6790505f5f835160208501845afa505050565b5f81518084528060208401602086015e5f602082860101526020601f19601f83011685010191505092915050565b602081525f6105fc60208301846105bc565b9392505050565b80358015158114610612575f5ffd5b919050565b5f5f5f5f6060858703121561062a575f5ffd5b843567ffffffffffffffff811115610640575f5ffd5b8501601f81018713610650575f5ffd5b803567ffffffffffffffff811115610666575f5ffd5b876020828401011115610677575f5ffd5b6020918201955093508501356001600160a01b0381168114610697575f5ffd5b91506106a560408601610603565b905092959194509250565b5f602082840312156106c0575f5ffd5b5035919050565b602081528151602082015260018060a01b0360208301511660408201526040820151151560608201525f606083015160808084015261070960a08401826105bc565b949350505050565b5f81518060208401855e5f93019283525090919050565b5f6107338286610711565b601760f91b81526107476001820186610711565b9050601760f91b815261075d6001820185610711565b9695505050505050565b634e487b7160e01b5f52604160045260245ffd5b600181811c9082168061078f57607f821691505b6020821081036107ad57634e487b7160e01b5f52602260045260245ffd5b50919050565b601f8211156107fa57805f5260205f20601f840160051c810160208510156107d85750805b601f840160051c820191505b818110156107f7575f81556001016107e4565b50505b505050565b815167ffffffffffffffff81111561081957610819610767565b61082d81610827845461077b565b846107b3565b6020601f82116001811461085f575f83156108485750848201515b5f19600385901b1c1916600184901b1784556107f7565b5f84815260208120601f198516915b8281101561088e578785015182556020948501946001909201910161086e565b50848210156108ab57868401515f19600387901b60f8161c191681555b50505050600190811b01905550565b5f6108c58286610711565b60609490941b6bffffffffffffffffffffffff191684525050151560f81b601482015260150191905056fea26469706673582212205403c0c7636c616f93772162eedba306c95f074b8aeca5f42e7d8cf872c4e60164736f6c634300081b0033",
  "linkReferences": {},
  "deployedLinkReferences": {},
  "immutableReferences": {
    "13347": [
      {
        "length": 32,
        "start": 169
      }
    ],
    "13349": [
      {
        "length": 32,
        "start": 210
      }
    ],
    "13351": [
      {
        "length": 32,
        "start": 251
      }
    ]
  },
  "inputSourceName": "project/contracts/eas/SchemaRegistry.sol",
  "buildInfoId": "solc-0_8_27-be487d7ab3757ec15c989f2229442a6c4dfd43d9"
}