{
  "_format": "hh3-artifact-1",
  "contractName": "HyperVault",
  "sourceName": "contracts/HyperVault.sol",
  "abi": [
    {
      "inputs": [],
      "stateMutability": "nonpayable",
      "type": "constructor"
    },
    {
      "inputs": [
        {
          "internalType": "address",
          "name": "spender",
          "type": "address"
        },
        {
          "internalType": "uint256",
          "name": "allowance",
          "type": "uint256"
        },
        {
          "internalType": "uint256",
          "name": "needed",
          "type": "uint256"
        }
      ],
      "name": "ERC20InsufficientAllowance",
      "type": "error"
    },
    {
      "inputs": [
        {
          "internalType": "address",
          "name": "sender",
          "type": "address"
        },
        {
          "internalType": "uint256",
          "name": "balance",
          "type": "uint256"
        },
        {
          "internalType": "uint256",
          "name": "needed",
          "type": "uint256"
        }
      ],
      "name": "ERC20InsufficientBalance",
      "type": "error"
    },
    {
      "inputs": [
        {
          "internalType": "address",
          "name": "approver",
          "type": "address"
        }
      ],
      "name": "ERC20InvalidApprover",
      "type": "error"
    },
    {
      "inputs": [
        {
          "internalType": "address",
          "name": "receiver",
          "type": "address"
        }
      ],
      "name": "ERC20InvalidReceiver",
      "type": "error"
    },
    {
      "inputs": [
        {
          "internalType": "address",
          "name": "sender",
          "type": "address"
        }
      ],
      "name": "ERC20InvalidSender",
      "type": "error"
    },
    {
      "inputs": [
        {
          "internalType": "address",
          "name": "spender",
          "type": "address"
        }
      ],
      "name": "ERC20InvalidSpender",
      "type": "error"
    },
    {
      "inputs": [
        {
          "internalType": "address",
          "name": "receiver",
          "type": "address"
        },
        {
          "internalType": "uint256",
          "name": "assets",
          "type": "uint256"
        },
        {
          "internalType": "uint256",
          "name": "max",
          "type": "uint256"
        }
      ],
      "name": "ERC4626ExceededMaxDeposit",
      "type": "error"
    },
    {
      "inputs": [
        {
          "internalType": "address",
          "name": "receiver",
          "type": "address"
        },
        {
          "internalType": "uint256",
          "name": "shares",
          "type": "uint256"
        },
        {
          "internalType": "uint256",
          "name": "max",
          "type": "uint256"
        }
      ],
      "name": "ERC4626ExceededMaxMint",
      "type": "error"
    },
    {
      "inputs": [
        {
          "internalType": "address",
          "name": "owner",
          "type": "address"
        },
        {
          "internalType": "uint256",
          "name": "shares",
          "type": "uint256"
        },
        {
          "internalType": "uint256",
          "name": "max",
          "type": "uint256"
        }
      ],
      "name": "ERC4626ExceededMaxRedeem",
      "type": "error"
    },
    {
      "inputs": [
        {
          "internalType": "address",
          "name": "owner",
          "type": "address"
        },
        {
          "internalType": "uint256",
          "name": "assets",
          "type": "uint256"
        },
        {
          "internalType": "uint256",
          "name": "max",
          "type": "uint256"
        }
      ],
      "name": "ERC4626ExceededMaxWithdraw",
      "type": "error"
    },
    {
      "inputs": [],
      "name": "InvalidInitialization",
      "type": "error"
    },
    {
      "inputs": [],
      "name": "NotInitializing",
      "type": "error"
    },
    {
      "inputs": [],
      "name": "ReentrancyGuardReentrantCall",
      "type": "error"
    },
    {
      "inputs": [
        {
          "internalType": "address",
          "name": "token",
          "type": "address"
        }
      ],
      "name": "SafeERC20FailedOperation",
      "type": "error"
    },
    {
      "anonymous": false,
      "inputs": [
        {
          "indexed": true,
          "internalType": "address",
          "name": "owner",
          "type": "address"
        },
        {
          "indexed": true,
          "internalType": "address",
          "name": "spender",
          "type": "address"
        },
        {
          "indexed": false,
          "internalType": "uint256",
          "name": "value",
          "type": "uint256"
        }
      ],
      "name": "Approval",
      "type": "event"
    },
    {
      "anonymous": false,
      "inputs": [
        {
          "indexed": true,
          "internalType": "address",
          "name": "sender",
          "type": "address"
        },
        {
          "indexed": true,
          "internalType": "address",
          "name": "owner",
          "type": "address"
        },
        {
          "indexed": false,
          "internalType": "uint256",
          "name": "assets",
          "type": "uint256"
        },
        {
          "indexed": false,
          "internalType": "uint256",
          "name": "shares",
          "type": "uint256"
        }
      ],
      "name": "Deposit",
      "type": "event"
    },
    {
      "anonymous": false,
      "inputs": [
        {
          "indexed": true,
          "internalType": "address",
          "name": "sender",
          "type": "address"
        },
        {
          "indexed": true,
          "internalType": "address",
          "name": "owner",
          "type": "address"
        },
        {
          "indexed": false,
          "internalType": "uint256",
          "name": "assets",
          "type": "uint256"
        }
      ],
      "name": "Funded",
      "type": "event"
    },
    {
      "anonymous": false,
      "inputs": [
        {
          "indexed": false,
          "internalType": "uint64",
          "name": "version",
          "type": "uint64"
        }
      ],
      "name": "Initialized",
      "type": "event"
    },
    {
      "anonymous": false,
      "inputs": [
        {
          "indexed": true,
          "internalType": "address",
          "name": "from",
          "type": "address"
        },
        {
          "indexed": true,
          "internalType": "address",
          "name": "to",
          "type": "address"
        },
        {
          "indexed": false,
          "internalType": "uint256",
          "name": "value",
          "type": "uint256"
        }
      ],
      "name": "Transfer",
      "type": "event"
    },
    {
      "anonymous": false,
      "inputs": [
        {
          "indexed": true,
          "internalType": "address",
          "name": "sender",
          "type": "address"
        },
        {
          "indexed": true,
          "internalType": "address",
          "name": "receiver",
          "type": "address"
        },
        {
          "indexed": true,
          "internalType": "address",
          "name": "owner",
          "type": "address"
        },
        {
          "indexed": false,
          "internalType": "uint256",
          "name": "assets",
          "type": "uint256"
        },
        {
          "indexed": false,
          "internalType": "uint256",
          "name": "shares",
          "type": "uint256"
        }
      ],
      "name": "Withdraw",
      "type": "event"
    },
    {
      "inputs": [
        {
          "internalType": "address",
          "name": "owner",
          "type": "address"
        },
        {
          "internalType": "address",
          "name": "spender",
          "type": "address"
        }
      ],
      "name": "allowance",
      "outputs": [
        {
          "internalType": "uint256",
          "name": "",
          "type": "uint256"
        }
      ],
      "stateMutability": "view",
      "type": "function"
    },
    {
      "inputs": [
        {
          "internalType": "address",
          "name": "spender",
          "type": "address"
        },
        {
          "internalType": "uint256",
          "name": "value",
          "type": "uint256"
        }
      ],
      "name": "approve",
      "outputs": [
        {
          "internalType": "bool",
          "name": "",
          "type": "bool"
        }
      ],
      "stateMutability": "nonpayable",
      "type": "function"
    },
    {
      "inputs": [],
      "name": "asset",
      "outputs": [
        {
          "internalType": "address",
          "name": "",
          "type": "address"
        }
      ],
      "stateMutability": "view",
      "type": "function"
    },
    {
      "inputs": [
        {
          "internalType": "address",
          "name": "account",
          "type": "address"
        }
      ],
      "name": "balanceOf",
      "outputs": [
        {
          "internalType": "uint256",
          "name": "",
          "type": "uint256"
        }
      ],
      "stateMutability": "view",
      "type": "function"
    },
    {
      "inputs": [],
      "name": "config",
      "outputs": [
        {
          "internalType": "contract IERC20",
          "name": "asset",
          "type": "address"
        },
        {
          "internalType": "contract HyperVault",
          "name": "parent",
          "type": "address"
        },
        {
          "internalType": "address",
          "name": "owner",
          "type": "address"
        },
        {
          "internalType": "uint256",
          "name": "percent",
          "type": "uint256"
        },
        {
          "internalType": "uint256",
          "name": "shares",
          "type": "uint256"
        },
        {
          "internalType": "string",
          "name": "metadataURI",
          "type": "string"
        }
      ],
      "stateMutability": "view",
      "type": "function"
    },
    {
      "inputs": [
        {
          "internalType": "uint256",
          "name": "shares",
          "type": "uint256"
        }
      ],
      "name": "convertToAssets",
      "outputs": [
        {
          "internalType": "uint256",
          "name": "",
          "type": "uint256"
        }
      ],
      "stateMutability": "view",
      "type": "function"
    },
    {
      "inputs": [
        {
          "internalType": "uint256",
          "name": "assets",
          "type": "uint256"
        }
      ],
      "name": "convertToShares",
      "outputs": [
        {
          "internalType": "uint256",
          "name": "",
          "type": "uint256"
        }
      ],
      "stateMutability": "view",
      "type": "function"
    },
    {
      "inputs": [],
      "name": "decimals",
      "outputs": [
        {
          "internalType": "uint8",
          "name": "",
          "type": "uint8"
        }
      ],
      "stateMutability": "view",
      "type": "function"
    },
    {
      "inputs": [
        {
          "internalType": "uint256",
          "name": "assets",
          "type": "uint256"
        },
        {
          "internalType": "address",
          "name": "receiver",
          "type": "address"
        }
      ],
      "name": "deposit",
      "outputs": [
        {
          "internalType": "uint256",
          "name": "",
          "type": "uint256"
        }
      ],
      "stateMutability": "nonpayable",
      "type": "function"
    },
    {
      "inputs": [
        {
          "internalType": "uint256",
          "name": "assets",
          "type": "uint256"
        },
        {
          "internalType": "address",
          "name": "receiver",
          "type": "address"
        }
      ],
      "name": "fund",
      "outputs": [
        {
          "internalType": "uint256",
          "name": "",
          "type": "uint256"
        }
      ],
      "stateMutability": "nonpayable",
      "type": "function"
    },
    {
      "inputs": [
        {
          "components": [
            {
              "internalType": "contract IERC20",
              "name": "asset",
              "type": "address"
            },
            {
              "internalType": "contract HyperVault",
              "name": "parent",
              "type": "address"
            },
            {
              "internalType": "address",
              "name": "owner",
              "type": "address"
            },
            {
              "internalType": "uint256",
              "name": "percent",
              "type": "uint256"
            },
            {
              "internalType": "uint256",
              "name": "shares",
              "type": "uint256"
            },
            {
              "internalType": "string",
              "name": "metadataURI",
              "type": "string"
            }
          ],
          "internalType": "struct Config",
          "name": "config_",
          "type": "tuple"
        }
      ],
      "name": "initialize",
      "outputs": [],
      "stateMutability": "nonpayable",
      "type": "function"
    },
    {
      "inputs": [
        {
          "internalType": "address",
          "name": "",
          "type": "address"
        }
      ],
      "name": "maxDeposit",
      "outputs": [
        {
          "internalType": "uint256",
          "name": "",
          "type": "uint256"
        }
      ],
      "stateMutability": "view",
      "type": "function"
    },
    {
      "inputs": [
        {
          "internalType": "address",
          "name": "",
          "type": "address"
        }
      ],
      "name": "maxMint",
      "outputs": [
        {
          "internalType": "uint256",
          "name": "",
          "type": "uint256"
        }
      ],
      "stateMutability": "view",
      "type": "function"
    },
    {
      "inputs": [
        {
          "internalType": "address",
          "name": "owner",
          "type": "address"
        }
      ],
      "name": "maxRedeem",
      "outputs": [
        {
          "internalType": "uint256",
          "name": "",
          "type": "uint256"
        }
      ],
      "stateMutability": "view",
      "type": "function"
    },
    {
      "inputs": [
        {
          "internalType": "address",
          "name": "owner",
          "type": "address"
        }
      ],
      "name": "maxWithdraw",
      "outputs": [
        {
          "internalType": "uint256",
          "name": "",
          "type": "uint256"
        }
      ],
      "stateMutability": "view",
      "type": "function"
    },
    {
      "inputs": [
        {
          "internalType": "uint256",
          "name": "shares",
          "type": "uint256"
        },
        {
          "internalType": "address",
          "name": "receiver",
          "type": "address"
        }
      ],
      "name": "mint",
      "outputs": [
        {
          "internalType": "uint256",
          "name": "",
          "type": "uint256"
        }
      ],
      "stateMutability": "nonpayable",
      "type": "function"
    },
    {
      "inputs": [],
      "name": "name",
      "outputs": [
        {
          "internalType": "string",
          "name": "",
          "type": "string"
        }
      ],
      "stateMutability": "view",
      "type": "function"
    },
    {
      "inputs": [
        {
          "internalType": "uint256",
          "name": "assets",
          "type": "uint256"
        }
      ],
      "name": "previewDeposit",
      "outputs": [
        {
          "internalType": "uint256",
          "name": "",
          "type": "uint256"
        }
      ],
      "stateMutability": "view",
      "type": "function"
    },
    {
      "inputs": [
        {
          "internalType": "uint256",
          "name": "shares",
          "type": "uint256"
        }
      ],
      "name": "previewMint",
      "outputs": [
        {
          "internalType": "uint256",
          "name": "",
          "type": "uint256"
        }
      ],
      "stateMutability": "view",
      "type": "function"
    },
    {
      "inputs": [
        {
          "internalType": "uint256",
          "name": "shares",
          "type": "uint256"
        }
      ],
      "name": "previewRedeem",
      "outputs": [
        {
          "internalType": "uint256",
          "name": "",
          "type": "uint256"
        }
      ],
      "stateMutability": "view",
      "type": "function"
    },
    {
      "inputs": [
        {
          "internalType": "uint256",
          "name": "assets",
          "type": "uint256"
        }
      ],
      "name": "previewWithdraw",
      "outputs": [
        {
          "internalType": "uint256",
          "name": "",
          "type": "uint256"
        }
      ],
      "stateMutability": "view",
      "type": "function"
    },
    {
      "inputs": [
        {
          "internalType": "uint256",
          "name": "shares",
          "type": "uint256"
        },
        {
          "internalType": "address",
          "name": "receiver",
          "type": "address"
        },
        {
          "internalType": "address",
          "name": "owner",
          "type": "address"
        }
      ],
      "name": "redeem",
      "outputs": [
        {
          "internalType": "uint256",
          "name": "",
          "type": "uint256"
        }
      ],
      "stateMutability": "nonpayable",
      "type": "function"
    },
    {
      "inputs": [],
      "name": "symbol",
      "outputs": [
        {
          "internalType": "string",
          "name": "",
          "type": "string"
        }
      ],
      "stateMutability": "view",
      "type": "function"
    },
    {
      "inputs": [],
      "name": "totalAssets",
      "outputs": [
        {
          "internalType": "uint256",
          "name": "",
          "type": "uint256"
        }
      ],
      "stateMutability": "view",
      "type": "function"
    },
    {
      "inputs": [],
      "name": "totalSupply",
      "outputs": [
        {
          "internalType": "uint256",
          "name": "",
          "type": "uint256"
        }
      ],
      "stateMutability": "view",
      "type": "function"
    },
    {
      "inputs": [
        {
          "internalType": "address",
          "name": "to",
          "type": "address"
        },
        {
          "internalType": "uint256",
          "name": "value",
          "type": "uint256"
        }
      ],
      "name": "transfer",
      "outputs": [
        {
          "internalType": "bool",
          "name": "",
          "type": "bool"
        }
      ],
      "stateMutability": "nonpayable",
      "type": "function"
    },
    {
      "inputs": [
        {
          "internalType": "address",
          "name": "from",
          "type": "address"
        },
        {
          "internalType": "address",
          "name": "to",
          "type": "address"
        },
        {
          "internalType": "uint256",
          "name": "value",
          "type": "uint256"
        }
      ],
      "name": "transferFrom",
      "outputs": [
        {
          "internalType": "bool",
          "name": "",
          "type": "bool"
        }
      ],
      "stateMutability": "nonpayable",
      "type": "function"
    },
    {
      "inputs": [
        {
          "internalType": "uint256",
          "name": "assets",
          "type": "uint256"
        },
        {
          "internalType": "address",
          "name": "receiver",
          "type": "address"
        },
        {
          "internalType": "address",
          "name": "owner",
          "type": "address"
        }
      ],
      "name": "withdraw",
      "outputs": [
        {
          "internalType": "uint256",
          "name": "",
          "type": "uint256"
        }
      ],
      "stateMutability": "nonpayable",
      "type": "function"
    }
  ],
  "bytecode": "0x6080604052348015600e575f5ffd5b5060015f556019601d565b60cd565b7ff0c57e16840df040f15088dc2f81fe391c3923bec73e23a9662efc9c229c6a00805468010000000000000000900460ff1615606c5760405163f92ee8a960e01b815260040160405180910390fd5b80546001600160401b039081161460ca5780546001600160401b0319166001600160401b0390811782556040519081527fc7f505b2f371ae2175ee4913f4499e1f2633a7b5936321eed1cdaeb6115181d29060200160405180910390a15b50565b611ba1806100da5f395ff3fe608060405234801561000f575f5ffd5b50600436106101bb575f3560e01c806379502c55116100f3578063c63d75b611610093578063d905777e1161006e578063d905777e146103a2578063dd62ed3e146103b5578063eee92395146103c8578063ef8b30f71461037c575f5ffd5b8063c63d75b6146102c1578063c6e6f5921461037c578063ce96cb771461038f575f5ffd5b8063a9059cbb116100ce578063a9059cbb14610330578063b3d7f6b914610343578063b460af9414610356578063ba08765214610369575f5ffd5b806379502c55146102fb57806394bf804d1461031557806395d89b4114610328575f5ffd5b806323b872dd1161015e578063402d267d11610139578063402d267d146102c15780634cdad506146101ef5780636e553f65146102d557806370a08231146102e8575f5ffd5b806323b872dd14610274578063313ce5671461028757806338d52e0f146102a1575f5ffd5b8063095ea7b311610199578063095ea7b3146102025780630a28a477146102255780630e60fce01461023857806318160ddd1461024d575f5ffd5b806301e1d114146101bf57806306fdde03146101da57806307a2d13a146101ef575b5f5ffd5b6101c76103db565b6040519081526020015b60405180910390f35b6101e2610451565b6040516101d19190611519565b6101c76101fd36600461152b565b610511565b610215610210366004611556565b610522565b60405190151581526020016101d1565b6101c761023336600461152b565b610539565b61024b610246366004611648565b610545565b005b7f52c63247e1f47db19d5ce0460030c497f067ca4cebf71ba98eeadabe20bace02546101c7565b610215610282366004611701565b610765565b61028f61078a565b60405160ff90911681526020016101d1565b6102a96107cc565b6040516001600160a01b0390911681526020016101d1565b6101c76102cf36600461173f565b505f1990565b6101c76102e336600461175a565b6107fa565b6101c76102f636600461173f565b61082b565b610303610851565b6040516101d196959493929190611788565b6101c761032336600461175a565b610908565b6101e2610923565b61021561033e366004611556565b610961565b6101c761035136600461152b565b61096e565b6101c76103643660046117d5565b61097a565b6101c76103773660046117d5565b6109d0565b6101c761038a36600461152b565b610a1d565b6101c761039d36600461173f565b610a28565b6101c76103b036600461173f565b610a3b565b6101c76103c3366004611814565b610a45565b6101c76103d636600461175a565b610a8e565b5f6103e46107cc565b6040516370a0823160e01b81523060048201526001600160a01b0391909116906370a0823190602401602060405180830381865afa158015610428573d5f5f3e3d5ffd5b505050506040513d601f19601f8201168201806040525081019061044c9190611840565b905090565b7f52c63247e1f47db19d5ce0460030c497f067ca4cebf71ba98eeadabe20bace0380546060915f516020611b4c5f395f51905f529161048f90611857565b80601f01602080910402602001604051908101604052809291908181526020018280546104bb90611857565b80156105065780601f106104dd57610100808354040283529160200191610506565b820191905f5260205f20905b8154815290600101906020018083116104e957829003601f168201915b505050505091505090565b5f61051c825f610b50565b92915050565b5f3361052f818585610ba7565b5060019392505050565b5f61051c826001610bb9565b5f61054e610c07565b805490915060ff600160401b820416159067ffffffffffffffff165f811580156105755750825b90505f8267ffffffffffffffff1660011480156105915750303b155b90508115801561059f575080155b156105bd5760405163f92ee8a960e01b815260040160405180910390fd5b845467ffffffffffffffff1916600117855583156105e757845460ff60401b1916600160401b1785555b61062e60405180604001604052806009815260200168121e5c195c98d95c9d60ba1b8152506040518060400160405280600481526020016318d95c9d60e21b815250610c2f565b855161063990610c45565b8551600180546001600160a01b039283166001600160a01b0319918216178255602089015160028054918516918316919091179055604089015160038054919094169116179091556060870151600455608087015160055560a08701518791906006906106a690826118d3565b505050608086015115610717576106c586604001518760800151610c59565b604080870151608088015182515f815260208101919091526001600160a01b039091169182917fdcbc1c05240f31ff3ad067ef1ee35ce4997762752e3a095284754544f4c709d7910160405180910390a35b831561075d57845460ff60401b19168555604051600181527fc7f505b2f371ae2175ee4913f4499e1f2633a7b5936321eed1cdaeb6115181d29060200160405180910390a15b505050505050565b5f33610772858285610c8d565b61077d858585610cde565b60019150505b9392505050565b5f807f0773e532dfede91f04b12a73d3d2acd361424f41f76b4fb79f090161e36b4e0090505f81546107c69190600160a01b900460ff166119a2565b91505090565b7f0773e532dfede91f04b12a73d3d2acd361424f41f76b4fb79f090161e36b4e00546001600160a01b031690565b5f5f1961080b565b60405180910390fd5b5f61081585610a1d565b905061082333858784610d3b565b949350505050565b6001600160a01b03165f9081525f516020611b4c5f395f51905f52602052604090205490565b60018054600254600354600454600554600680546001600160a01b03968716979587169690941694929391929161088790611857565b80601f01602080910402602001604051908101604052809291908181526020018280546108b390611857565b80156108fe5780601f106108d5576101008083540402835291602001916108fe565b820191905f5260205f20905b8154815290600101906020018083116108e157829003601f168201915b5050505050905086565b5f5f195f6109158561096e565b905061082333858388610d3b565b7f52c63247e1f47db19d5ce0460030c497f067ca4cebf71ba98eeadabe20bace0480546060915f516020611b4c5f395f51905f529161048f90611857565b5f3361052f818585610cde565b5f61051c826001610b50565b5f5f61098583610a28565b9050808511156109ae57828582604051633fa733bb60e21b8152600401610802939291906119bb565b5f6109b886610539565b90506109c73386868985610db4565b95945050505050565b5f5f6109db83610a3b565b905080851115610a0457828582604051632e52afbb60e21b8152600401610802939291906119bb565b5f610a0e86610511565b90506109c7338686848a610db4565b5f61051c825f610bb9565b5f61051c610a358361082b565b5f610b50565b5f61051c8261082b565b6001600160a01b039182165f9081527f52c63247e1f47db19d5ce0460030c497f067ca4cebf71ba98eeadabe20bace016020908152604080832093909416825291909152205490565b5f610a97610e5b565b5f8311610ae65760405162461bcd60e51b815260206004820152601760248201527f48797065725661756c743a207a65726f206173736574730000000000000000006044820152606401610802565b610b05333085610af46107cc565b6001600160a01b0316929190610e83565b6040518381526001600160a01b0383169033907f3b5083eec1a1116c56de5d6841cff8efc6a0aec9850e836ec509d6ce024ea5619060200160405180910390a3508161051c60015f55565b5f610783610b5c6103db565b610b679060016119dc565b610b725f600a611ad2565b7f52c63247e1f47db19d5ce0460030c497f067ca4cebf71ba98eeadabe20bace0254610b9e91906119dc565b85919085610eea565b610bb48383836001610f2c565b505050565b5f610783610bc882600a611ad2565b7f52c63247e1f47db19d5ce0460030c497f067ca4cebf71ba98eeadabe20bace0254610bf491906119dc565b610bfc6103db565b610b9e9060016119dc565b5f807ff0c57e16840df040f15088dc2f81fe391c3923bec73e23a9662efc9c229c6a0061051c565b610c37611010565b610c418282611037565b5050565b610c4d611010565b610c5681611087565b50565b6001600160a01b038216610c825760405163ec442f0560e01b81525f6004820152602401610802565b610c415f838361110a565b5f610c988484610a45565b90505f19811015610cd85781811015610cca57828183604051637dc7a0d960e11b8152600401610802939291906119bb565b610cd884848484035f610f2c565b50505050565b6001600160a01b038316610d0757604051634b637e8f60e11b81525f6004820152602401610802565b6001600160a01b038216610d305760405163ec442f0560e01b81525f6004820152602401610802565b610bb483838361110a565b610d4e610d466107cc565b853085610e83565b610d588382610c59565b826001600160a01b0316846001600160a01b03167fdcbc1c05240f31ff3ad067ef1ee35ce4997762752e3a095284754544f4c709d78484604051610da6929190918252602082015260400190565b60405180910390a350505050565b826001600160a01b0316856001600160a01b031614610dd857610dd8838683610c8d565b610de28382611222565b610df4610ded6107cc565b8584611256565b826001600160a01b0316846001600160a01b0316866001600160a01b03167ffbde797d201c681b91056529119e0b02407c7bb96a4a2c75c01fc9667232c8db8585604051610e4c929190918252602082015260400190565b60405180910390a45050505050565b60025f5403610e7d57604051633ee5aeb560e01b815260040160405180910390fd5b60025f55565b6040516001600160a01b038481166024830152838116604483015260648201839052610cd89186918216906323b872dd906084015b604051602081830303815290604052915060e01b6020820180516001600160e01b038381831617835250505050611287565b5f610f17610ef7836112f3565b8015610f1257505f8480610f0d57610f0d611ae0565b868809115b151590565b610f2286868661131f565b6109c791906119dc565b5f516020611b4c5f395f51905f526001600160a01b038516610f635760405163e602df0560e01b81525f6004820152602401610802565b6001600160a01b038416610f8c57604051634a1406b160e11b81525f6004820152602401610802565b6001600160a01b038086165f9081526001830160209081526040808320938816835292905220839055811561100957836001600160a01b0316856001600160a01b03167f8c5be1e5ebec7d5bd14f71427d1e84f3dd0314c0f7b2291e5b200ac8c7c3b9258560405161100091815260200190565b60405180910390a35b5050505050565b6110186113cf565b61103557604051631afcd79f60e31b815260040160405180910390fd5b565b61103f611010565b5f516020611b4c5f395f51905f527f52c63247e1f47db19d5ce0460030c497f067ca4cebf71ba98eeadabe20bace0361107884826118d3565b5060048101610cd883826118d3565b61108f611010565b7f0773e532dfede91f04b12a73d3d2acd361424f41f76b4fb79f090161e36b4e005f806110bb846113e8565b91509150816110cb5760126110cd565b805b83546001600160a81b031916600160a01b60ff92909216919091026001600160a01b031916176001600160a01b0394909416939093179091555050565b5f516020611b4c5f395f51905f526001600160a01b0384166111445781816002015f82825461113991906119dc565b909155506111a19050565b6001600160a01b0384165f90815260208290526040902054828110156111835784818460405163391434e360e21b8152600401610802939291906119bb565b6001600160a01b0385165f9081526020839052604090209083900390555b6001600160a01b0383166111bf5760028101805483900390556111dd565b6001600160a01b0383165f9081526020829052604090208054830190555b826001600160a01b0316846001600160a01b03167fddf252ad1be2c89b69c2b068fc378daa952ba7f163c4a11628f55a4df523b3ef84604051610da691815260200190565b6001600160a01b03821661124b57604051634b637e8f60e11b81525f6004820152602401610802565b610c41825f8361110a565b6040516001600160a01b03838116602483015260448201839052610bb491859182169063a9059cbb90606401610eb8565b5f5f60205f8451602086015f885af1806112a6576040513d5f823e3d81fd5b50505f513d915081156112bd5780600114156112ca565b6001600160a01b0384163b155b15610cd857604051635274afe760e01b81526001600160a01b0385166004820152602401610802565b5f600282600381111561130857611308611af4565b6113129190611b08565b60ff166001149050919050565b5f5f5f61132c86866114be565b91509150815f036113505783818161134657611346611ae0565b0492505050610783565b8184116113675761136760038515026011186114da565b5f848688095f868103871696879004966002600389028118808a02820302808a02820302808a02820302808a02820302808a02820302808a02909103029181900381900460010185841190960395909502919093039390930492909217029150509392505050565b5f6113d8610c07565b54600160401b900460ff16919050565b60408051600481526024810182526020810180516001600160e01b031663313ce56760e01b17905290515f918291829182916001600160a01b0387169161142e91611b35565b5f60405180830381855afa9150503d805f8114611466576040519150601f19603f3d011682016040523d82523d5f602084013e61146b565b606091505b509150915081801561147f57506020815110155b156114b2575f818060200190518101906114999190611840565b905060ff81116114b0576001969095509350505050565b505b505f9485945092505050565b5f805f1983850993909202808410938190039390930393915050565b634e487b715f52806020526024601cfd5b5f81518084528060208401602086015e5f602082860101526020601f19601f83011685010191505092915050565b602081525f61078360208301846114eb565b5f6020828403121561153b575f5ffd5b5035919050565b6001600160a01b0381168114610c56575f5ffd5b5f5f60408385031215611567575f5ffd5b823561157281611542565b946020939093013593505050565b634e487b7160e01b5f52604160045260245ffd5b60405160c0810167ffffffffffffffff811182821017156115b7576115b7611580565b60405290565b5f82601f8301126115cc575f5ffd5b813567ffffffffffffffff8111156115e6576115e6611580565b604051601f8201601f19908116603f0116810167ffffffffffffffff8111828210171561161557611615611580565b60405281815283820160200185101561162c575f5ffd5b816020850160208301375f918101602001919091529392505050565b5f60208284031215611658575f5ffd5b813567ffffffffffffffff81111561166e575f5ffd5b820160c0818503121561167f575f5ffd5b611687611594565b813561169281611542565b815260208201356116a281611542565b602082015260408201356116b581611542565b6040820152606082810135908201526080808301359082015260a082013567ffffffffffffffff8111156116e7575f5ffd5b6116f3868285016115bd565b60a083015250949350505050565b5f5f5f60608486031215611713575f5ffd5b833561171e81611542565b9250602084013561172e81611542565b929592945050506040919091013590565b5f6020828403121561174f575f5ffd5b813561078381611542565b5f5f6040838503121561176b575f5ffd5b82359150602083013561177d81611542565b809150509250929050565b6001600160a01b038781168252868116602083015285166040820152606081018490526080810183905260c060a082018190525f906117c9908301846114eb565b98975050505050505050565b5f5f5f606084860312156117e7575f5ffd5b8335925060208401356117f981611542565b9150604084013561180981611542565b809150509250925092565b5f5f60408385031215611825575f5ffd5b823561183081611542565b9150602083013561177d81611542565b5f60208284031215611850575f5ffd5b5051919050565b600181811c9082168061186b57607f821691505b60208210810361188957634e487b7160e01b5f52602260045260245ffd5b50919050565b601f821115610bb457805f5260205f20601f840160051c810160208510156118b45750805b601f840160051c820191505b81811015611009575f81556001016118c0565b815167ffffffffffffffff8111156118ed576118ed611580565b611901816118fb8454611857565b8461188f565b6020601f821160018114611933575f831561191c5750848201515b5f19600385901b1c1916600184901b178455611009565b5f84815260208120601f198516915b828110156119625787850151825560209485019460019092019101611942565b508482101561197f57868401515f19600387901b60f8161c191681555b50505050600190811b01905550565b634e487b7160e01b5f52601160045260245ffd5b60ff818116838216019081111561051c5761051c61198e565b6001600160a01b039390931683526020830191909152604082015260600190565b8082018082111561051c5761051c61198e565b6001815b6001841115611a2a57808504811115611a0e57611a0e61198e565b6001841615611a1c57908102905b60019390931c9280026119f3565b935093915050565b5f82611a405750600161051c565b81611a4c57505f61051c565b8160018114611a625760028114611a6c57611a88565b600191505061051c565b60ff841115611a7d57611a7d61198e565b50506001821b61051c565b5060208310610133831016604e8410600b8410161715611aab575081810a61051c565b611ab75f1984846119ef565b805f1904821115611aca57611aca61198e565b029392505050565b5f61078360ff841683611a32565b634e487b7160e01b5f52601260045260245ffd5b634e487b7160e01b5f52602160045260245ffd5b5f60ff831680611b2657634e487b7160e01b5f52601260045260245ffd5b8060ff84160691505092915050565b5f82518060208501845e5f92019182525091905056fe52c63247e1f47db19d5ce0460030c497f067ca4cebf71ba98eeadabe20bace00a2646970667358221220f827c13431fc0ff1897a5b2590a3e6e65639eb0271332c5137bdf4ce2503131664736f6c634300081b0033",
  "linkReferences": {},
  "deployedLinkReferences": {},
  "immutableReferences": {},
  "inputSourceName": "project/contracts/HyperVault.sol",
  "buildInfoId": "solc-0_8_27-420e9ee83091817f10281f838415de1f487f85a8"
}