{
  "_format": "hh3-artifact-1",
  "contractName": "HyperVaultDeployer",
  "sourceName": "contracts/HyperVault.sol",
  "abi": [
    {
      "anonymous": false,
      "inputs": [
        {
          "components": [
            {
              "internalType": "contract IERC20",
              "name": "asset",
              "type": "address"
            },
            {
              "internalType": "contract HyperVault",
              "name": "parent",
              "type": "address"
            },
            {
              "internalType": "uint256",
              "name": "percent",
              "type": "uint256"
            },
            {
              "internalType": "string",
              "name": "metadata",
              "type": "string"
            }
          ],
          "indexed": false,
          "internalType": "struct Config",
          "name": "config",
          "type": "tuple"
        }
      ],
      "name": "Created",
      "type": "event"
    },
    {
      "inputs": [
        {
          "components": [
            {
              "internalType": "contract IERC20",
              "name": "asset",
              "type": "address"
            },
            {
              "internalType": "contract HyperVault",
              "name": "parent",
              "type": "address"
            },
            {
              "internalType": "uint256",
              "name": "percent",
              "type": "uint256"
            },
            {
              "internalType": "string",
              "name": "metadata",
              "type": "string"
            }
          ],
          "internalType": "struct Config",
          "name": "config",
          "type": "tuple"
        }
      ],
      "name": "create",
      "outputs": [
        {
          "internalType": "contract HyperVault",
          "name": "",
          "type": "address"
        }
      ],
      "stateMutability": "nonpayable",
      "type": "function"
    }
  ],
  "bytecode": "0x6080604052348015600e575f5ffd5b506122cb8061001c5f395ff3fe608060405234801561000f575f5ffd5b5060043610610029575f3560e01c80630f435ef01461002d575b5f5ffd5b61004061003b366004610126565b61005c565b6040516001600160a01b03909116815260200160405180910390f35b5f8160405161006a90610094565b610074919061021f565b604051809103905ff08015801561008d573d5f5f3e3d5ffd5b5092915050565b61200a8061028c83390190565b634e487b7160e01b5f52604160045260245ffd5b6040516080810167ffffffffffffffff811182821017156100d8576100d86100a1565b60405290565b604051601f8201601f1916810167ffffffffffffffff81118282101715610107576101076100a1565b604052919050565b6001600160a01b0381168114610123575f5ffd5b50565b5f60208284031215610136575f5ffd5b813567ffffffffffffffff81111561014c575f5ffd5b82016080818503121561015d575f5ffd5b6101656100b5565b81356101708161010f565b815260208201356101808161010f565b602082015260408281013590820152606082013567ffffffffffffffff8111156101a8575f5ffd5b80830192505084601f8301126101bc575f5ffd5b813567ffffffffffffffff8111156101d6576101d66100a1565b6101e9601f8201601f19166020016100de565b8181528660208386010111156101fd575f5ffd5b816020850160208301375f918101602001919091526060820152949350505050565b6020815260018060a01b03825116602082015260018060a01b036020830151166040820152604082015160608201525f606083015160808084015280518060a0850152806020830160c086015e5f60c0828601015260c0601f19601f830116850101925050509291505056fe610100604052348015610010575f5ffd5b5060405161200a38038061200a83398101604081905261002f91610343565b80516040805180820182526009815268121e5c195c98d95c9d60ba1b6020808301919091528251808401909352600483526318d95c9d60e21b9083015290600361007983826104bd565b50600461008682826104bd565b5050505f5f61009a836101ea60201b60201c565b91509150816100aa5760126100ac565b805b60ff1660a05250506001600160a01b03166080526040810151612710101561011a5760405162461bcd60e51b815260206004820152601960248201527f557073747265616d2070657263656e7420746f6f206869676800000000000000604482015260640160405180910390fd5b8051600580546001600160a01b039283166001600160a01b0319918216178255602084015160068054919094169116179091556040820151600755606082015182919060089061016a90826104bd565b5050506020810180516001600160a01b0390811660c052604083015160e052905116156101e45780602001516001600160a01b031663fd645c9f6040518163ffffffff1660e01b81526004015f604051808303815f87803b1580156101cd575f5ffd5b505af11580156101df573d5f5f3e3d5ffd5b505050505b506105a4565b60408051600481526024810182526020810180516001600160e01b031663313ce56760e01b17905290515f918291829182916001600160a01b0387169161023091610577565b5f60405180830381855afa9150503d805f8114610268576040519150601f19603f3d011682016040523d82523d5f602084013e61026d565b606091505b509150915081801561028157506020815110155b156102b4575f8180602001905181019061029b919061058d565b905060ff81116102b2576001969095509350505050565b505b505f9485945092505050565b634e487b7160e01b5f52604160045260245ffd5b604051608081016001600160401b03811182821017156102f6576102f66102c0565b60405290565b604051601f8201601f191681016001600160401b0381118282101715610324576103246102c0565b604052919050565b6001600160a01b0381168114610340575f5ffd5b50565b5f60208284031215610353575f5ffd5b81516001600160401b03811115610368575f5ffd5b820160808185031215610379575f5ffd5b6103816102d4565b815161038c8161032c565b8152602082015161039c8161032c565b60208201526040828101519082015260608201516001600160401b038111156103c3575f5ffd5b80830192505084601f8301126103d7575f5ffd5b81516001600160401b038111156103f0576103f06102c0565b610403601f8201601f19166020016102fc565b818152866020838601011115610417575f5ffd5b8160208501602083015e5f918101602001919091526060820152949350505050565b600181811c9082168061044d57607f821691505b60208210810361046b57634e487b7160e01b5f52602260045260245ffd5b50919050565b601f8211156104b857805f5260205f20601f840160051c810160208510156104965750805b601f840160051c820191505b818110156104b5575f81556001016104a2565b50505b505050565b81516001600160401b038111156104d6576104d66102c0565b6104ea816104e48454610439565b84610471565b6020601f82116001811461051c575f83156105055750848201515b5f19600385901b1c1916600184901b1784556104b5565b5f84815260208120601f198516915b8281101561054b578785015182556020948501946001909201910161052b565b508482101561056857868401515f19600387901b60f8161c191681555b50505050600190811b01905550565b5f82518060208501845e5f920191825250919050565b5f6020828403121561059d575f5ffd5b5051919050565b60805160a05160c05160e0516119c36106475f395f81816103a2015281816106ec0152818161071a015281816107d8015261080601525f8181610340015281816106b7015281816107a401528181610db001528181610e2201528181610ebb0152610f5401525f61064e01525f81816102dc015281816104d20152818161067b0152818161085801528181610dec01528181610fe201526110a201526119c35ff3fe608060405234801561000f575f5ffd5b50600436106101fd575f3560e01c806370ba111311610114578063bc063e1a116100a9578063d4a2f26a11610079578063d4a2f26a14610472578063d905777e1461047a578063dd62ed3e1461048d578063ef8b30f71461044c578063fd645c9f146104c5575f5ffd5b8063bc063e1a14610443578063c63d75b614610327578063c6e6f5921461044c578063ce96cb771461045f575f5ffd5b8063a9059cbb116100e4578063a9059cbb146103f7578063b3d7f6b91461040a578063b460af941461041d578063ba08765214610430575f5ffd5b806370ba11131461039d57806379502c55146103c457806394bf804d146103dc57806395d89b41146103ef575f5ffd5b8063313ce56711610195578063402d267d11610165578063402d267d146103275780634cdad5061461023a57806360f96a8f1461033b5780636e553f651461036257806370a0823114610375575f5ffd5b8063313ce5671461029e57806333c2e26d146102b857806338d52e0f146102da578063393286c214610314575f5ffd5b8063095ea7b3116101d0578063095ea7b31461024d5780630a28a4771461027057806318160ddd1461028357806323b872dd1461028b575f5ffd5b806301e1d11414610201578063048d91fb1461021c57806306fdde031461022557806307a2d13a1461023a575b5f5ffd5b6102096104cf565b6040519081526020015b60405180910390f35b610209600a5481565b61022d61055e565b6040516102139190611550565b610209610248366004611562565b6105ee565b61026061025b366004611590565b6105ff565b6040519015158152602001610213565b61020961027e366004611562565b610616565b600254610209565b6102606102993660046115ba565b610622565b6102a6610647565b60405160ff9091168152602001610213565b6102606102c63660046115f8565b60096020525f908152604090205460ff1681565b7f00000000000000000000000000000000000000000000000000000000000000005b6040516001600160a01b039091168152602001610213565b610209610322366004611620565b610672565b6102096103353660046115f8565b505f1990565b6102fc7f000000000000000000000000000000000000000000000000000000000000000081565b61020961037036600461164e565b6107a0565b6102096103833660046115f8565b6001600160a01b03165f9081526020819052604090205490565b6102097f000000000000000000000000000000000000000000000000000000000000000081565b6103cc6108e3565b6040516102139493929190611671565b6102096103ea36600461164e565b61098e565b61022d6109bf565b610260610405366004611590565b6109ce565b610209610418366004611562565b6109db565b61020961042b3660046116ad565b6109e7565b61020961043e3660046116ad565b610a3d565b61020961271081565b61020961045a366004611562565b610a8a565b61020961046d3660046115f8565b610a95565b610209610ab7565b6102096104883660046115f8565b610baa565b61020961049b3660046116ec565b6001600160a01b039182165f90815260016020908152604080832093909416825291909152205490565b6104cd610bc7565b005b5f7f00000000000000000000000000000000000000000000000000000000000000006040516370a0823160e01b81523060048201526001600160a01b0391909116906370a0823190602401602060405180830381865afa158015610535573d5f5f3e3d5ffd5b505050506040513d601f19601f820116820180604052508101906105599190611718565b905090565b60606003805461056d9061172f565b80601f01602080910402602001604051908101604052809291908181526020018280546105999061172f565b80156105e45780601f106105bb576101008083540402835291602001916105e4565b820191905f5260205f20905b8154815290600101906020018083116105c757829003601f168201915b5050505050905090565b5f6105f9825f610c08565b92915050565b5f3361060c818585610c40565b5060019392505050565b5f6105f9826001610c52565b5f3361062f858285610c81565b61063a858585610cea565b60019150505b9392505050565b5f610559817f000000000000000000000000000000000000000000000000000000000000000061177b565b5f6106ac3330857f00000000000000000000000000000000000000000000000000000000000000005b6001600160a01b0316929190610d47565b5f8280156106e257507f00000000000000000000000000000000000000000000000000000000000000006001600160a01b031615155b801561070d57505f7f0000000000000000000000000000000000000000000000000000000000000000115b156107545761271061073f7f000000000000000000000000000000000000000000000000000000000000000086611794565b61074991906117bf565b905061075481610dae565b5f61075f82866117d2565b60405181815290915033907f5af8184bef8e4b45eb9f6ed7734d04da38ced226495548f46e0c8ff8d7d9a5249060200160405180910390a250929392505050565b5f807f00000000000000000000000000000000000000000000000000000000000000006001600160a01b0316158015906107f957505f7f0000000000000000000000000000000000000000000000000000000000000000115b156108385761271061082b7f000000000000000000000000000000000000000000000000000000000000000086611794565b61083591906117bf565b90505b5f61084382866117d2565b905061084e81610a8a565b925061087c3330877f000000000000000000000000000000000000000000000000000000000000000061069b565b811561088b5761088b82610dae565b6108958484610fa5565b60408051828152602081018590526001600160a01b0386169133917fdcbc1c05240f31ff3ad067ef1ee35ce4997762752e3a095284754544f4c709d7910160405180910390a3505092915050565b60058054600654600754600880546001600160a01b03948516959490931693919261090d9061172f565b80601f01602080910402602001604051908101604052809291908181526020018280546109399061172f565b80156109845780601f1061095b57610100808354040283529160200191610984565b820191905f5260205f20905b81548152906001019060200180831161096757829003601f168201915b5050505050905084565b5f5f1961099f565b60405180910390fd5b5f6109a9856109db565b90506109b733858388610fdd565b949350505050565b60606004805461056d9061172f565b5f3361060c818585610cea565b5f6105f9826001610c08565b5f5f6109f283610a95565b905080851115610a1b57828582604051633fa733bb60e21b8152600401610996939291906117e5565b5f610a2586610616565b9050610a34338686898561106f565b95945050505050565b5f5f610a4883610baa565b905080851115610a7157828582604051632e52afbb60e21b8152600401610996939291906117e5565b5f610a7b866105ee565b9050610a34338686848a61106f565b5f6105f9825f610c52565b6001600160a01b0381165f908152602081905260408120546105f9905f610c08565b5f305b5f6001600160a01b0316816001600160a01b03166360f96a8f6040518163ffffffff1660e01b8152600401602060405180830381865afa158015610b00573d5f5f3e3d5ffd5b505050506040513d601f19601f82011682018060405250810190610b249190611806565b6001600160a01b031614610ba65781610b3c81611821565b925050806001600160a01b03166360f96a8f6040518163ffffffff1660e01b8152600401602060405180830381865afa158015610b7b573d5f5f3e3d5ffd5b505050506040513d601f19601f82011682018060405250810190610b9f9190611806565b9050610aba565b5090565b6001600160a01b0381165f908152602081905260408120546105f9565b335f81815260096020526040808220805460ff19166001179055517f45076c259a2bdf04614e11f6bdea04cfcf591da7daa6ed075783743ef1bc2a1e9190a2565b5f610640610c146104cf565b610c1f906001611839565b610c2a5f600a61192f565b600254610c379190611839565b8591908561112f565b610c4d8383836001611171565b505050565b5f610640610c6182600a61192f565b600254610c6e9190611839565b610c766104cf565b610c37906001611839565b6001600160a01b038381165f908152600160209081526040808320938616835292905220545f19811015610ce45781811015610cd657828183604051637dc7a0d960e11b8152600401610996939291906117e5565b610ce484848484035f611171565b50505050565b6001600160a01b038316610d1357604051634b637e8f60e11b81525f6004820152602401610996565b6001600160a01b038216610d3c5760405163ec442f0560e01b81525f6004820152602401610996565b610c4d838383611235565b6040516001600160a01b038481166024830152838116604483015260648201839052610ce49186918216906323b872dd906084015b604051602081830303815290604052915060e01b6020820180516001600160e01b038381831617835250505050611348565b7f00000000000000000000000000000000000000000000000000000000000000006001600160a01b03161580610de2575080155b15610dea5750565b7f000000000000000000000000000000000000000000000000000000000000000060405163095ea7b360e01b81526001600160a01b037f00000000000000000000000000000000000000000000000000000000000000008116600483015260248201849052919091169063095ea7b3906044016020604051808303815f875af1158015610e79573d5f5f3e3d5ffd5b505050506040513d601f19601f82011682018060405250810190610e9d919061193d565b50604051631c99436160e11b815260048101829052600160248201527f00000000000000000000000000000000000000000000000000000000000000006001600160a01b03169063393286c2906044016020604051808303815f875af1158015610f09573d5f5f3e3d5ffd5b505050506040513d601f19601f82011682018060405250810190610f2d9190611718565b5080600a5f828254610f3f9190611839565b90915550506040518181526001600160a01b037f000000000000000000000000000000000000000000000000000000000000000016907f15e6800b1b0df1b533699a0350cfa1006b072302c1fe17887ddb1b578079b4779060200160405180910390a250565b6001600160a01b038216610fce5760405163ec442f0560e01b81525f6004820152602401610996565b610fd95f8383611235565b5050565b6110097f0000000000000000000000000000000000000000000000000000000000000000853085610d47565b6110138382610fa5565b826001600160a01b0316846001600160a01b03167fdcbc1c05240f31ff3ad067ef1ee35ce4997762752e3a095284754544f4c709d78484604051611061929190918252602082015260400190565b60405180910390a350505050565b826001600160a01b0316856001600160a01b03161461109357611093838683610c81565b61109d83826113b4565b6110c87f000000000000000000000000000000000000000000000000000000000000000085846113e8565b826001600160a01b0316846001600160a01b0316866001600160a01b03167ffbde797d201c681b91056529119e0b02407c7bb96a4a2c75c01fc9667232c8db8585604051611120929190918252602082015260400190565b60405180910390a45050505050565b5f61115c61113c83611419565b801561115757505f8480611152576111526117ab565b868809115b151590565b611167868686611445565b610a349190611839565b6001600160a01b03841661119a5760405163e602df0560e01b81525f6004820152602401610996565b6001600160a01b0383166111c357604051634a1406b160e11b81525f6004820152602401610996565b6001600160a01b038085165f9081526001602090815260408083209387168352929052208290558015610ce457826001600160a01b0316846001600160a01b03167f8c5be1e5ebec7d5bd14f71427d1e84f3dd0314c0f7b2291e5b200ac8c7c3b9258460405161106191815260200190565b6001600160a01b03831661125f578060025f8282546112549190611839565b909155506112bc9050565b6001600160a01b0383165f908152602081905260409020548181101561129e5783818360405163391434e360e21b8152600401610996939291906117e5565b6001600160a01b0384165f9081526020819052604090209082900390555b6001600160a01b0382166112d8576002805482900390556112f6565b6001600160a01b0382165f9081526020819052604090208054820190555b816001600160a01b0316836001600160a01b03167fddf252ad1be2c89b69c2b068fc378daa952ba7f163c4a11628f55a4df523b3ef8360405161133b91815260200190565b60405180910390a3505050565b5f5f60205f8451602086015f885af180611367576040513d5f823e3d81fd5b50505f513d9150811561137e57806001141561138b565b6001600160a01b0384163b155b15610ce457604051635274afe760e01b81526001600160a01b0385166004820152602401610996565b6001600160a01b0382166113dd57604051634b637e8f60e11b81525f6004820152602401610996565b610fd9825f83611235565b6040516001600160a01b03838116602483015260448201839052610c4d91859182169063a9059cbb90606401610d7c565b5f600282600381111561142e5761142e611958565b611438919061196c565b60ff166001149050919050565b5f5f5f61145286866114f5565b91509150815f036114765783818161146c5761146c6117ab565b0492505050610640565b81841161148d5761148d6003851502601118611511565b5f848688095f868103871696879004966002600389028118808a02820302808a02820302808a02820302808a02820302808a02820302808a02909103029181900381900460010185841190960395909502919093039390930492909217029150509392505050565b5f805f1983850993909202808410938190039390930393915050565b634e487b715f52806020526024601cfd5b5f81518084528060208401602086015e5f602082860101526020601f19601f83011685010191505092915050565b602081525f6106406020830184611522565b5f60208284031215611572575f5ffd5b5035919050565b6001600160a01b038116811461158d575f5ffd5b50565b5f5f604083850312156115a1575f5ffd5b82356115ac81611579565b946020939093013593505050565b5f5f5f606084860312156115cc575f5ffd5b83356115d781611579565b925060208401356115e781611579565b929592945050506040919091013590565b5f60208284031215611608575f5ffd5b813561064081611579565b801515811461158d575f5ffd5b5f5f60408385031215611631575f5ffd5b82359150602083013561164381611613565b809150509250929050565b5f5f6040838503121561165f575f5ffd5b82359150602083013561164381611579565b6001600160a01b03858116825284166020820152604081018390526080606082018190525f906116a390830184611522565b9695505050505050565b5f5f5f606084860312156116bf575f5ffd5b8335925060208401356116d181611579565b915060408401356116e181611579565b809150509250925092565b5f5f604083850312156116fd575f5ffd5b823561170881611579565b9150602083013561164381611579565b5f60208284031215611728575f5ffd5b5051919050565b600181811c9082168061174357607f821691505b60208210810361176157634e487b7160e01b5f52602260045260245ffd5b50919050565b634e487b7160e01b5f52601160045260245ffd5b60ff81811683821601908111156105f9576105f9611767565b80820281158282048414176105f9576105f9611767565b634e487b7160e01b5f52601260045260245ffd5b5f826117cd576117cd6117ab565b500490565b818103818111156105f9576105f9611767565b6001600160a01b039390931683526020830191909152604082015260600190565b5f60208284031215611816575f5ffd5b815161064081611579565b5f6001820161183257611832611767565b5060010190565b808201808211156105f9576105f9611767565b6001815b60018411156118875780850481111561186b5761186b611767565b600184161561187957908102905b60019390931c928002611850565b935093915050565b5f8261189d575060016105f9565b816118a957505f6105f9565b81600181146118bf57600281146118c9576118e5565b60019150506105f9565b60ff8411156118da576118da611767565b50506001821b6105f9565b5060208310610133831016604e8410600b8410161715611908575081810a6105f9565b6119145f19848461184c565b805f190482111561192757611927611767565b029392505050565b5f61064060ff84168361188f565b5f6020828403121561194d575f5ffd5b815161064081611613565b634e487b7160e01b5f52602160045260245ffd5b5f60ff83168061197e5761197e6117ab565b8060ff8416069150509291505056fea26469706673582212207f925c8438d61ba5a3ee932e28469a8593e0f97a91041a4a68d6ed22f052f36164736f6c634300081c0033a26469706673582212203923d5505daf5ffa9ef96adc28a8babe87de2554362bf8ee01c3d522c501fb6264736f6c634300081c0033",
  "linkReferences": {},
  "deployedLinkReferences": {},
  "immutableReferences": {},
  "inputSourceName": "project/contracts/HyperVault.sol",
  "buildInfoId": "solc-0_8_28-f55a62629848224bb63702440d721c9ca870139b"
}